:100000000C942A010C94DB0D0C9447010C944701CD
:100010000C94E10B0C941D0C0C9447010C944701BB
:100020000C9447010C948A0A0C9447010C944701E4
:100030000C9447010C9447010C9447010C94470120
:100040000C9447010C9447010C9447010C94470110
:100050000C944701808386898C8F9295989B9EA2F1
:10006000A5A7AAADB0B3B6B9BCBEC1C4C6C9CBCEF4
:10007000D0D3D5D7DADCDEE0E2E4E6E8EAEBEDEE79
:10008000F0F1F3F4F5F6F8F9FAFAFBFCFDFDFEFEEB
:10009000FEFFFFFFFFFFFFFFFEFEFEFDFDFCFBFA84
:1000A000FAF9F8F6F5F4F3F1F0EEEDEBEAE8E6E450
:1000B000E2E0DEDCDAD7D5D3D0CECBC9C6C4C1BE30
:1000C000BCB9B6B3B0ADAAA7A5A29E9B9895928FD6
:1000D0008C898683807C797673706D6A6764615DD4
:1000E0005A5855524F4C494643413E3B39363431BC
:1000F0002F2C2A282523211F1D1B19171514121117
:100100000F0E0C0B0A090706050504030202010184
:1001100001000000000000000101010202030405CB
:10012000050607090A0B0C0E0F1112141517191BDF
:100130001D1F212325282A2C2F313436393B3E41DF
:100140004346494C4F5255585A5D6164676A6D7019
:100150007376797C80868C92979DA2A7ACB0B4B858
:10016000BBBEC1C4C6C8CACCCED0D2D4D6D8DBDDC3
:10017000E0E2E5E7EAECEEF0F2F4F6F7F9FAFBFC80
:10018000FDFDFEFEFFFFFFFEFEFDFDFCFBFAF9F7A5
:10019000F6F4F2F0EEECEAE7E5E2E0DDDBD8D6D407
:1001A000D2D0CECCCAC8C6C4C1BEBBB8B4B0ACA74E
:1001B000A29D97928C868079736D68625D58534FCB
:1001C0004B4744413E3B39373533312F2D2B2927BF
:1001D00024221F1D1A181513110F0D0B09080605EF
:1001E00004030202010100000001010202030405F0
:1001F0000608090B0D0F111315181A1D1F222427AD
:10020000292B2D2F31333537393B3E4144474B4F56
:1002100053585D62686D737980868C92979DA2A712
:10022000ACB0B4B8BBBEC1C4C6C8CACCCED0D2D4A0
:10023000D6D8DBDDE0E2E5E7EAECEEF0F2F4F6F743
:10024000F9FAFBFCFDFDFEFEFFFFFFFEFEFDFDFCDF
:10025000FBFAF9F711241FBECFE5D8E0DEBFCDBF12
:1002600012E0A0E6B0E0E4E1FBE302C005900D92ED
:10027000AC36B107D9F712E0ACE6B2E001C01D928E
:10028000A13EB107E1F70E94191B0C94881D0C9444
:100290000000EF92FF920F93DF93CF93CDB7DEB7BD
:1002A00060970FB6F894DEBF0FBECDBFA82F002316
:1002B00009F461C07E010894E11CF11C88E0F7019B
:1002C00011928A95E9F729833A834B835C836D8386
:1002D0007E83AF83988780E2801BE82FFF27E7FDAE
:1002E000F09549815A816B817C81181684F01986BA
:1002F0001A861B861C86882799278E1B9F0B04C095
:10030000440F551F661F771F8A95D2F728C0202FEC
:10031000332727FD3095DB01CA01022E04C0880F68
:10032000991FAA1FBB1F0A94D2F789879A87AB87A8
:10033000BC8704C07695679557954795EA95D2F79F
:100340008D819E81AF81B88504C0880F991FAA1F37
:10035000BB1F2A95D2F7482B592B6A2B7B2B4D8735
:100360005E876F87788B29853A854B855C856D859F
:100370007E85AF8598898A2F60960FB6F894DEBF88
:100380000FBECDBFCF91DF910F91FF90EF900895F9
:10039000AEE5B0E0EEECF1E00C94511DA8E04E01AA
:1003A0000894811C911CF4016A2E11926A94E9F759
:1003B00029833A834B835C836D837E838F83988705
:1003C000CE010996FC011192AA95E9F7A986BA8691
:1003D000CB86DC86ED86FE860F87188B29843A84CF
:1003E0004B845C84ED84FE840F85188969807A8053
:1003F0008B809C806DA67EA68FA698AA6D807E803D
:100400008F809884E114F1040105110509F0B3C34C
:10041000621473048404950408F03DC100E02016C2
:1004200000E0300601E0400600E0500688F41FEFCF
:10043000211631044104510439F030F048E0E42E33
:10044000F12C012D112D18C0EE24FF24870114C0BA
:1004500020E0221620E0320620E0420621E052068B
:1004600030F038E1E32EF12C012D112D05C020E1F3
:10047000E22EF12C012D112DD201C1010E2C04C050
:10048000B695A795979587950A94D2F782539F4F73
:10049000DC012C9180E290E0A0E0B0E08E199F0991
:1004A000A00BB10B7C018D01E21AF10801091109C1
:1004B000E114F10401051105A1F10E2C04C0220C78
:1004C000331C441C551C0A94D2F7A40193010E2C32
:1004D00004C0220F331F441F551F0A94D2F780E235
:1004E00090E08E199F096DA47EA48FA498A804C0E3
:1004F00096948794779467948A95D2F7622A732AA0
:10050000842A952AADA4BEA4CFA4D8A804C0AA0C5E
:10051000BB1CCC1CDD1CEA94D2F7ADA6BEA6CFA6B0
:10052000D8AA6201EE24FF24CDAADEAAEFAAF8AE73
:10053000920181012070307009AF1AAF2BAF3CAF30
:10054000C401B301A70196010E942F1D7B018C01FC
:10055000C401B3012DA93EA94FA958AD0E942F1D7A
:10056000C901DA013C014D01C401B30129AD3AAD25
:100570004BAD5CAD0E94101D9B01AC018701FF24B7
:10058000EE24ADA4BEA4CFA4D8A8C601AA27BB2739
:1005900057016801A82AB92ACA2ADB2AA216B3067B
:1005A000C406D506E0F40894610871088108910832
:1005B000A20CB31CC41CD51CA214B304C404D504DF
:1005C00070F0A216B306C406D50648F40894610874
:1005D000710881089108A20CB31CC41CD51CA21A76
:1005E000B30AC40AD50AC601B5012DA93EA94FA96F
:1005F00058AD0E942F1D7B018C01C601B5012DA9AC
:100600003EA94FA958AD0E942F1DC901DA015C0116
:100610006D01C601B50129AD3AAD4BAD5CAD0E948F
:10062000101D9B01AC018701FF24EE248DA59EA522
:10063000AFA5B8A9A070B070E82AF92A0A2B1B2B25
:10064000E216F30604071507C0F40894A108B108E0
:10065000C108D108E20CF31C041D151DE214F304BB
:100660000405150550F0E216F3060407150728F4F3
:100670000894A108B108C108D108D3019927882797
:1006800086017501E82AF92A0A2B1B2BE9AAFAAA86
:100690000BAB1CABCFC4211431044104510471F4E1
:1006A00061E070E080E090E020E030E040E050E089
:1006B0000E942F1DC901DA011C012D0100E0201646
:1006C00000E0300601E0400600E0500688F41FEF2D
:1006D000211631044104510431F028F048E050E083
:1006E00060E070E017C040E050E060E070E012C0F1
:1006F00020E0221620E0320620E0420621E05206E9
:1007000028F048E150E060E070E004C040E150E0D3
:1007100060E070E0D201C101042E04C0B695A79537
:10072000979587950A94D2F782539F4FDC012C91BD
:10073000E0E2EE2EF12C012D112DD801C701841B12
:10074000950BA60BB70B821B9109A109B109009764
:10075000A105B10561F464015301A218B308C408EE
:10076000D50831E0632E712C812C912C1EC16F961F
:100770008FAF6F97082E04C0220C331C441C551CED
:100780000A94D2F7EE2DE81B640153010E2E04C02B
:10079000D694C794B794A7940A94D2F7A40193016E
:1007A0006F960FAC6F9704C0220F331F441F551F65
:1007B0000A94D2F76DA47EA48FA498A80E2E04C02C
:1007C00096948794779467940A94D2F7840173017E
:1007D000E22AF32A042B152BE9A6FAA60BA71CA7DD
:1007E0003201882499249201810120703070219671
:1007F0000CAF1DAF2EAF3FAF2197C601B501A401CD
:1008000093010E942F1D7B018C01C601B501A4013B
:1008100093010E942F1DC901DA0125968CAF9DAF6F
:10082000AEAFBFAF2597BC01CD0121962CAD3DAD3C
:100830004EAD5FAD21970E94101D9B01AC01870159
:10084000FF24EE24A9A4BAA4CBA4DCA4C601AA2741
:10085000BB275C016D01AE28BF28C02AD12AA21691
:10086000B306C406D50660F525966CAD7DAD8EAD9C
:100870009FAD2597615070408040904025966CAFA9
:100880007DAF8EAF9FAF2597A20CB31CC41CD51CA7
:10089000A214B304C404D50498F0A216B306C40687
:1008A000D50670F4615070408040904025966CAF42
:1008B0007DAF8EAF9FAF2597A20CB31CC41CD51C77
:1008C000A21AB30AC40AD50AC601B501A40193014C
:1008D0000E942F1D7B018C01C601B501A40193016B
:1008E0000E942F1DC901DA013C014D01C401B30171
:1008F00021962CAD3DAD4EAD5FAD21970E94101DF0
:100900009B01AC018701FF24EE2489A59AA5ABA524
:10091000BCA5A070B07057016801A82AB92ACA2ADC
:10092000DB2AA216B306C406D506E0F408946108D3
:10093000710881089108A20CB31CC41CD51CA21418
:10094000B304C404D50470F0A216B306C406D506D9
:1009500048F408946108710881089108A20CB31C3E
:10096000C41CD51C8DA59EA5AFA5B8A96F960FACCC
:100970006F9704C0880F991FAA1FBB1F0A94D2F754
:100980008DA79EA7AFA7B8ABA21AB30AC40AD50A0F
:100990002596ECACFDAC0EAD1FAD2597D701992780
:1009A0008827682A792A8A2A9B2A820122273327C4
:1009B00029960CAF1DAF2EAF3FAF2997A201910131
:1009C000407050702D962CAF3DAF4EAF5FAF2D975E
:1009D000C601B50129962CAD3DAD4EAD5FAD299751
:1009E0000E942F1D7B018C01C601B50129962CADFB
:1009F0003DAD4EAD5FAD29970E942F1DC901DA01B3
:100A000061968CAF9DAFAEAFBFAF6197BC01CD011A
:100A10002D962CAD3DAD4EAD5FAD2D970E94101DB6
:100A20009B01AC018701FF24EE24ADA4BEA4CFA49A
:100A3000D8A8C601AA27BB2757016801A82AB92A46
:100A4000CA2ADB2AA216B306C406D50660F561964B
:100A50006CAD7DAD8EAD9FAD6197615070408040B3
:100A6000904061966CAF7DAF8EAF9FAF6197A20C47
:100A7000B31CC41CD51CA214B304C404D50498F040
:100A8000A216B306C406D50670F4615070408040CB
:100A9000904061966CAF7DAF8EAF9FAF6197A20C17
:100AA000B31CC41CD51CA21AB30AC40AD50AC601B9
:100AB000B50129962CAD3DAD4EAD5FAD29970E9495
:100AC0002F1D7B018C01C601B50129962CAD3DADD2
:100AD0004EAD5FAD29970E942F1DC901DA015C015F
:100AE0006D01C601B5012D962CAD3DAD4EAD5FAD8E
:100AF0002D970E94101D9B01AC018701FF24EE245D
:100B00008DA59EA5AFA5B8A9A070B070E82AF92A56
:100B10000A2B1B2BE216F30604071507C0F40894F2
:100B2000A108B108C108D108E20CF31C041D151D71
:100B3000E214F3040405150550F0E216F306040769
:100B4000150728F40894A108B108C108D1086196D6
:100B5000ECACFDAC0EAD1FAD6197D701992788278E
:100B600096018501082B192B2A2B3B2B09AB1AABBD
:100B70002BAB3CAB62C26E147F048006910608F476
:100B800051C220E0E21620E0F20621E0020720E058
:100B9000120788F43FEFE316F1040105110531F067
:100BA00028F048E050E060E070E017C040E050E01E
:100BB00060E070E012C040E0E41640E0F40640E07F
:100BC000040741E0140728F048E150E060E070E0DD
:100BD00004C040E150E060E070E0D801C701042E9D
:100BE00004C0B695A795979587950A94D2F7825336
:100BF0009F4FDC012C9130E2A32EB12CC12CD12CC3
:100C0000D601C501841B950BA60BB70B821B91095E
:100C1000A109B1090097A105B10589F4E614F7040B
:100C20000805190508F4F2C16DA47EA48FA498A844
:100C3000621473048404950408F0E8C1F3C16E964D
:100C40008FAF6E97082E04C0EE0CFF1C001F111F03
:100C50000A94D2F76A2D681BD201C101062E04C086
:100C6000B695A795979587950A94D2F75C016D0183
:100C7000AE28BF28C02AD12AADA2BEA2CFA2D8A634
:100C8000720161016E960FAC6E9704C0CC0CDD1C36
:100C9000EE1CFF1C0A94D2F7C9A2DAA2EBA2FCA2B6
:100CA00064015301062E04C0D694C794B794A79448
:100CB0000A94D2F7D401C3016E960FAC6E9704C0AC
:100CC000880F991FAA1FBB1F0A94D2F7EDA4FEA498
:100CD0000FA518A904C016950795F794E7946A958F
:100CE000D2F737014801682A792A8A2A9B2A6D8E11
:100CF0007E8E8F8E98A2EDA0FEA00FA118A53801C0
:100D000088249924980187012070307065960CAF73
:100D10001DAF2EAF3FAF6597C601B501A40193018A
:100D20000E942F1D7B018C01C601B501A401930116
:100D30000E942F1DC901DA011C012D01C201B10160
:100D400065962CAD3DAD4EAD5FAD65970E94101D13
:100D50009B01AC018701FF24EE24AD8CBE8CCF8CAF
:100D6000D8A0C601AA27BB2757016801A82AB92A1B
:100D7000CA2ADB2AA216B306C406D50600F50894D3
:100D80002108310841085108EDA0FEA00FA118A5C7
:100D9000AE0CBF1CC01ED11EAE14BF04C006D106CF
:100DA00070F0A216B306C406D50648F408942108CC
:100DB000310841085108AE0CBF1CC01ED11EA21A3A
:100DC000B30AC40AD50AC601B501A40193010E9461
:100DD0002F1D7B018C01C601B501A40193010E9466
:100DE0002F1DC901DA013C014D01C401B301659613
:100DF0002CAD3DAD4EAD5FAD65970E94101D9B01C2
:100E0000AC018701FF24EE248D8D9E8DAF8DB8A19E
:100E1000A070B07057016801A82AB92ACA2ADB2A33
:100E2000A216B306C406D50600F508946108710839
:100E3000810891086DA17EA18FA198A5A60EB71E6D
:100E4000C81ED91EA616B706C806D90670F0A21687
:100E5000B306C406D50648F40894610871088108F1
:100E60009108A60EB71EC81ED91ED601C501821B49
:100E7000930BA40BB50B898F9A8FAB8FBC8FD101CD
:100E80009927882764015301A82AB92ACA2ADB2A8C
:100E9000A9AABAAACBAADCAA860175012FEF3FEF57
:100EA00040E050E0E222F32204231523A601662746
:100EB00077276D964CAF5DAF6EAF7FAF6D97A9A0F2
:100EC000BAA0CBA0DCA06FEF7FEF80E090E0A6227D
:100ED000B722C822D92289A19AA1ABA1BCA11D0128
:100EE00044245524C801B701A60195010E94101D94
:100EF00069966CAF7DAF8EAF9FAF6997C801B701A0
:100F0000A20191010E94101D3B014C016D966CAD38
:100F10007DAD8EAD9FAD6D97A60195010E94101D10
:100F20007B018C016D966CAD7DAD8EAD9FAD6D97E7
:100F3000A20191010E94101D5B016C01A8019701A3
:100F4000260D371D481D591D69966CAC7DAC8EACC5
:100F50009FAC6997C401AA27BB27280F391F4A1FD6
:100F60005B1F2E153F054007510748F4E12CF12C7B
:100F700061E0062F112DAE0CBF1CC01ED11ECA0190
:100F8000AA27BB27BC01CD016A0D7B1D8C1D9D1DB1
:100F9000698C7A8C8B8C9C8C6616770688069906F1
:100FA00040F1661577058805990509F043C0D90118
:100FB0009927882769962CAD3DAD4EAD5FAD6997F9
:100FC00040705070820F931FA41FB51F2DA53EA522
:100FD0004FA558A96E960FAC6E9704C0220F331F11
:100FE000441F551F0A94D2F7281739074A075B0791
:100FF00008F509A91AA92BA93CA9015010402040C5
:10100000304009AB1AAB2BAB3CAB14C06624772441
:10101000430121E030E040E050E029AB3AAB4BAB7C
:101020005CAB0BC066247724430119AA1AAA1BAA39
:101030001CAA03C0662477244301FE01719688E050
:10104000DF011D928A95E9F7A9A8BAA8CBA8DCA868
:10105000A98ABA8ACB8ADC8A6D8A7E8A8F8A988E20
:1010600029A93A894B895C89662D7E898F89988D5B
:10107000C25ADF4FE2E10C946D1DAF92BF92CF9246
:10108000DF92EF92FF920F931F9358016901853011
:1010900050F5E114F10489F141155105610571051F
:1010A00011F1282F30E0C901880F991F820F931F7B
:1010B000FC01EE0FFF1FEE0FFF1FE80FF91FE359B2
:1010C000FD4FF182E0824283538364837583A6825D
:1010D000B782C086D186A286B386C486D58681E0D3
:1010E000868780E001C081E01F910F91FF90EF9013
:1010F000DF90CF90BF90AF90089582E0F5CF85301C
:1011000008F5282F30E0C901880F991F820F931F1F
:10111000FC01EE0FFF1FEE0FFF1FE80FF91FE35951
:10112000FD4F118210821282138214821582168260
:1011300017821086118612861386148615861686E7
:1011400080E0089581E00895853090F490E0FC01FE
:10115000EE0FFF1FE80FF91FCF01880F991F880FAF
:10116000991FE80FF91FE359FD4F168680E0089597
:1011700081E008958530B8F490E09C01220F331F80
:10118000280F391FF901EE0FFF1FEE0FFF1FE20FAF
:10119000F31FE359FD4F80819181892B21F081E07C
:1011A000868780E0089581E00895CF93DF93809152
:1011B0006C028130E1F710926C02CDE6D2E08E85B0
:1011C000813041F02F9682E0C83BD80781F38E85AD
:1011D0008130C1F78A859B85AC85BD850097A105C7
:1011E000B10581F7E881F98109958A819B81AC81FC
:1011F000BD818A879B87AC87BD87E4CFE7E7F2E0B4
:101200008481813049F03F9682E0E23CF807C1F7E3
:1012100081E080936C02089580819181A281B381E5
:101220000097A105B10579F30197A109B109808360
:101230009183A283B383E7CFEDE6F2E011821082BF
:1012400012821382148215821682178210861186EA
:10125000128613861486158616863F9682E0E83B32
:10126000F80761F710926C020E94370B82E06EEF74
:1012700078E00E94620B08958D9A8C9A949881E888
:101280008FBD89E08EBD1DBC1CBC80E890E09BBD7D
:101290008ABD89B7846089BF1092C00288EE93E04E
:1012A000A0E0B0E08093CE019093CF01A093D00155
:1012B000B093D10189EE96E2A1E3B8E08093BC023D
:1012C0009093BD02A093BE02B093BF021092B802E9
:1012D0001092B9021092BA021092BB0208958530A2
:1012E00028F48093C002823009F094980895809188
:1012F000C00208958091C0028F5F853008F080E0C1
:101300000E946F0908952091C00289E0289F9001F2
:10131000112424523E4FC90108956F927F928F92FB
:101320009F92AF92BF92CF92DF92EF92FF920F9374
:101330001F933B014C01611571058105910509F071
:1013400040C0B1E06B2E712C812C912C64015301B3
:101350009301A60160E070E080E090E008E20E9466
:101360004901AA24F2E1BF2EEAE7CE2EDD24EE24C5
:10137000FF2400E010E00E94C801C901DA019C01CD
:10138000AD016092CE017092CF018092D001909217
:10139000D1018FB7F8942093BC023093BD024093E3
:1013A000BE025093BF028FBF1F910F91FF90EF902D
:1013B000DF90CF90BF90AF909F908F907F906F9075
:1013C000089581E268168EE4780680E0880680E061
:1013D000980608F4BBCFA0E26A2EAEE47A2E812CE8
:1013E000912C2DE33AE047ED53EACBCF6091CE014B
:1013F0007091CF018091D0019091D10108952091F9
:10140000CE013091CF014091D0015091D1012031D6
:1014100087E2380780E0480780E05807B8F068EEB8
:1014200073E080E090E0620F731F841F951F6132AC
:101430002EE4720720E0820720E0920720F060E2AD
:101440007EE480E090E00E948D090895283E83E0CC
:10145000380780E0480780E0580728F064E670E02D
:1014600080E090E0E0CF243631054105510528F0B9
:101470006AE070E080E090E0D6CF61E070E080E06C
:1014800090E0D1CF6091CE017091CF018091D001D9
:101490009091D101603127E2720720E0820720E0BD
:1014A000920798F4683E23E0720720E0820720E06C
:1014B0009207B0F024E630E040E050E0621B730B8E
:1014C000840B950B0E948D09089528EE33E040E0CF
:1014D00050E0621B730B840B950B0E948D090895DD
:1014E000643671058105910580F421E030E040E02B
:1014F00050E0261737074807590758F361E070E0B6
:1015000080E090E00E948D0908952AE030E040E0FC
:1015100050E0EFCF1F920F920FB60F9211242F932E
:101520003F934F935F938F939F93AF93BF93EF93AB
:10153000FF938091B8029091B902A091BA02B09144
:10154000BB022091BC023091BD024091BE0250917D
:10155000BF02280F391F4A1F5B1F2093B802309328
:10156000B9024093BA025093BB028091B8029091A5
:10157000B902A091BA02B091BB028B2F9927AA277A
:10158000BB27E82F2091C002223071F1233038F0C0
:10159000233091F0243061F0E0E8F0E00EC0222327
:1015A000E9F02130C9F787FD2DC0EE0FF0E005C04E
:1015B000F0E0EC5AFE4FE491F0E0FBBDEABDFF9194
:1015C000EF91BF91AF919F918F915F914F913F911B
:1015D0002F910F900FBE0F901F901895F0E0EC5ACE
:1015E000FF4FE491F0E0E9CF8091B8029091B90209
:1015F000A091BA02B091BB02B7FD06C09498E0E09A
:10160000F0E0DBCFE095D1CF949AEFEFF0E0D5CFCB
:1016100010BC83E389B9599886E880BD549A539ADF
:1016200008955D9BFECF8CB980E00895FC01009782
:1016300031F05F9BFECF8CB1808380E0089581E024
:1016400008958BB1881F8827881F0895FC01009793
:1016500061F08081882339F05D9BFECF8CB9818158
:1016600031968823C9F780E0089581E008958CE0E1
:1016700085BD8CE783BD14BC89B7806889BF8FB7EF
:1016800080688FBF08958FB780688FBF0895F894E2
:101690002091C7023091C8024091C9025091CA02FC
:1016A0007894B901CA010895833050F4E82FF0E02E
:1016B000EE0FFF1FEF53FD4F7183608380E00895AD
:1016C00081E00895833050F4E82FF0E0EE0FFF1F23
:1016D000E553FD4F7183608380E0089581E00895B4
:1016E000EF92FF920F931F93FC01009761F1F89422
:1016F000E090C702F090C8020091C9021091CA029E
:10170000789480819181A281B381A8019701281BDF
:10171000390B4A0B5B0BCB01A0E0B0E0281739076F
:101720004A075B0750F0E082F1820283138380E076
:101730001F910F91FF90EF90089581E01F910F91FD
:10174000FF90EF90089584E01F910F91FF90EF902C
:101750000895EF92FF920F931F93F894E090C702C1
:10176000F090C8020091C9021091CA0278949C01BD
:1017700040E050E0F8948091C7029091C802A09197
:10178000C902B091CA0278948E199F09A00BB10BBF
:1017900082179307A407B50768F31F910F91FF9075
:1017A000EF900895823009F00895662329F489B7EF
:1017B0008F7789BF89B7089589B7806889BF89B74E
:1017C00008951F920F920FB60F9211242F933F93FB
:1017D0004F935F936F937F938F939F93AF93BF9339
:1017E000EF93FF938091C7029091C802A091C90224
:1017F000B091CA020196A11DB11D8093C7029093BA
:10180000C802A093C902B093CA02E091CF02F0913E
:10181000D002309709F00995FF91EF91BF91AF91F8
:101820009F918F917F916F915F914F913F912F91F8
:101830000F900FBE0F901F9018951F920F920FB62A
:101840000F9211242F933F934F935F936F937F9346
:101850008F939F93AF93BF93EF93FF93E091C50254
:10186000F091C602309709F00995FF91EF91BF9171
:10187000AF919F918F917F916F915F914F913F9128
:101880002F910F900FBE0F901F901895BE9ABF9882
:10189000BD98BC9887E48DB970988EB18FB10895CA
:1018A000982FFB0161157105D1F08EB18295869557
:1018B0008695837080FF04C08EB19FB983E0089540
:1018C0009FB980E090E005C0019623EC8035920737
:1018D00041F0779BF9CF8FB1808380E0089581E05C
:1018E000089582E00895DF93CF930F92CDB7DEB7CE
:1018F0001982BE016F5F7F4F0E94500C0F90CF91F5
:10190000DF910895BC01009721F080E00E94500C07
:10191000089581E00895FC01009781F080E090E057
:1019200005C0019623EC8035920731F0779BF9CF03
:101930008FB1808380E0089582E0089581E008956A
:101940000F931F93CF93DF93062F0097B1F0662379
:10195000D9F0182FEC0105C021969E01211B2017FC
:1019600030F488810E94730C982F8823A9F3892F63
:10197000DF91CF911F910F91089591E0892FDF9111
:10198000CF911F910F91089590E0F1CF0F931F9386
:10199000CF93DF93062F0097B1F06623D9F0182F6D
:1019A000EC0105C021969E01211B201730F4CE01C9
:1019B0000E94820C982F8823A9F3892FDF91CF9161
:1019C0001F910F91089591E0892FDF91CF911F9181
:1019D0000F91089590E0F1CF9093D2028093D102BD
:1019E00080E00895C4980895C49A089511B880E2DB
:1019F00080B912B884E086BF089584EA86BF06B62F
:101A000007FEFDCF81B1887F883031F081B1887FBA
:101A1000803111F082E0089580E0089583B984E870
:101A200086BF06B607FEFDCF81B1887F883131F0D1
:101A300081B1887F803411F083E0089580E00895BB
:101A400083B984E886BF06B607FEFDCF81B1887FE3
:101A5000883211F084E0089580E00895FC01009739
:101A600079F084EC86BF06B607FEFDCF81B1887F92
:101A7000803511F085E0089583B1808380E008957A
:101A800081E00895FC01009779F084E886BF06B6EE
:101A900007FEFDCF81B1887F883511F085E008957C
:101AA00083B1808380E0089581E0089584E986BF52
:101AB00008958230C9F0833081F0882339F485B7E6
:101AC000826085BF85B78E7F85BF089585B78260A8
:101AD00085BF85B7816085BF089585B78D7F85BF38
:101AE00085B7816085BF089585B78D7F85BF85B730
:101AF0008E7F85BF089580E00E94590D8AB780646B
:101B00008ABF8BB780648BBF08958FB780688FBF03
:101B10000895833050F4E82FF0E0EE0FFF1FED52F0
:101B2000FD4F7183608380E0089581E008958130E6
:101B300071F0813020F08230D9F081E00895862F55
:101B40000E94590D8AB780648ABF80E00895623090
:101B5000E9F0633049F1662301F585B7886085BFF8
:101B600085B78B7F85BF8AB780688ABF80E008957C
:101B7000613041F084B78E7F84BF8AB780628ABFAC
:101B800080E0089584B7816084BFF7CF85B7877FF1
:101B900085BF85B78B7F85BFE6CF85B7886085BF5A
:101BA00085B7846085BFDFCF85B7877F85BF85B761
:101BB000846085BFD8CF1F920F920FB60F92112469
:101BC0002F933F934F935F936F937F938F939F9345
:101BD000AF93BF93EF93FF93E091D302F091D402C0
:101BE000309709F00995FF91EF91BF91AF919F91C7
:101BF0008F917F916F915F914F913F912F910F90B6
:101C00000FBE0F901F901895E39808958CB386959A
:101C10008170089524E080309207D0F420E030E015
:101C200040E050E00CC02F5F3F4F4F4F5F4F203AD6
:101C300076E8370771E0470770E0570759F0E199F8
:101C4000F2CF9FBB8EBB6DBBE29AE19A80E0089514
:101C500082E0089583E00895FB016115710511F19B
:101C600024E080309207D0F420E030E040E050E003
:101C70000CC02F5F3F4F4F4F5F4F203A66E836074B
:101C800061E0460760E0560759F0E199F2CF9FBB4B
:101C90008EBBE09A8DB3808380E0089582E0089542
:101CA00083E0089584E00895CF92DF92EF92FF924F
:101CB0000F931F93CF93DF937C016B018A01611512
:101CC000710559F124E080309207E8F4CA018E0DC5
:101CD0009F1D81509440B8F44115510501F1C0E0B9
:101CE000D0E0F601EC0FFD1FCE018E0D9F1D60812F
:101CF0000E940A0E882341F4E199FECF2196C01775
:101D0000D10778F301C082E0DF91CF911F910F914D
:101D1000FF90EF90DF90CF90089584E0F5CF80E0C2
:101D2000F3CFCF92DF92EF92FF920F931F93CF9357
:101D3000DF938C016B017A016115710549F124E093
:101D400080309207D8F4CA01800F911F81509440CF
:101D5000A8F441155105F1F0C0E0D0E004C021968F
:101D6000CE15DF0560F4B6016C0F7D1FCE01800F2C
:101D7000911F0E942C0E882391F301C082E0DF9115
:101D8000CF911F910F91FF90EF90DF90CF9008952A
:101D900084E0F5CF80E0F3CF1ABA17BA87EF84BB9F
:101DA00080E281BB1BBA18BA15BA8CE182BB0895D8
:101DB0006830A8F44130B9F0442399F4813079F1C6
:101DC000813038F52AB381E090E002C0880F991F76
:101DD0006A95E2F7809582238ABB80E0089582E0CD
:101DE000089583E00895813009F44CC0813020F1DA
:101DF000823009F453C0833081F421B381E090E054
:101E000002C0880F991F6A95E2F7282B21BB80E05A
:101E10000895823051F18330D9F081E0089527B3DD
:101E200081E090E002C0880F991F6A95E2F78095E3
:101E3000822387BB80E008952AB381E090E002C04E
:101E4000880F991F6A95E2F7282B2ABB80E0089536
:101E500021B381E090E002C0880F991F6A95E2F7F4
:101E60008095822381BB80E0089524B381E090E0D7
:101E700002C0880F991F6A95E2F78095822384BB80
:101E800080E0089527B381E090E002C0880F991F99
:101E90006A95E2F7282B27BB80E0089524B381E000
:101EA00090E002C0880F991F6A95E2F7282B24BBA7
:101EB00080E008956830A8F44130B9F0442399F4E3
:101EC000813079F1813038F52BB381E090E002C0A8
:101ED000880F991F6A95E2F7809582238BBB80E07B
:101EE000089582E0089584E00895813009F44CC09B
:101EF000813020F1823009F453C0833081F422B361
:101F000081E090E002C0880F991F6A95E2F7282BC4
:101F100022BB80E00895823051F18330D9F081E016
:101F2000089528B381E090E002C0880F991F6A9558
:101F3000E2F78095822388BB80E008952BB381E08F
:101F400090E002C0880F991F6A95E2F7282B2BBBFF
:101F500080E0089522B381E090E002C0880F991FCD
:101F60006A95E2F78095822382BB80E0089525B3CD
:101F700081E090E002C0880F991F6A95E2F7809592
:101F8000822385BB80E0089528B381E090E002C001
:101F9000880F991F6A95E2F7282B28BB80E00895E7
:101FA00025B381E090E002C0880F991F6A95E2F79F
:101FB000282B25BB80E00895FA014115510541F118
:101FC000683050F4813011F1813040F08230E1F01E
:101FD000833079F081E0089582E0089589B390E03C
:101FE00002C0959587956A95E2F78170808380E0BD
:101FF000089580B390E002C0959587956A95E2F7C1
:102000008170808380E0089583B3E9CF86B3E7CF02
:1020100085E00895813071F0813030F0823069F0D0
:10202000833029F081E008956ABB80E0089561BBA8
:1020300080E0089567BB80E0089564BB80E0089568
:10204000813071F0813030F0823069F0833029F0D6
:1020500081E008956BBB80E0089562BB80E0089545
:1020600068BB80E0089565BB80E00895FB016115C1
:102070007105D1F08130A1F0813030F0823061F013
:10208000833031F081E0089589B3808380E0089542
:1020900080B3808380E0089583B3808380E00895D7
:1020A00086B3808380E0089585E00895683050F419
:1020B0008130B1F0813040F0823051F18330E1F075
:1020C00081E0089582E008952BB381E090E002C0A2
:1020D000880F991F6A95E2F728272BBB80E00895A7
:1020E00028B381E090E002C0880F991F6A95E2F75B
:1020F000282728BB80E0089522B381E090E002C049
:10210000880F991F6A95E2F7282722BB80E008957F
:1021100025B381E090E002C0880F991F6A95E2F72D
:10212000282725BB80E00895883010F081E00895CD
:102130008F70806487B9369A80E00895FC0100971B
:1021400071F086B1829586958695837080FD04C076
:1021500081E0808380E00895108280E0089582E02D
:102160000895FC010097B9F086B182958695869511
:10217000837080FD0EC024B185B190E083709070B3
:10218000982F882730E0822B932B9183808380E0E7
:10219000089583E0089582E00895CF93DF93EB01E3
:1021A0000E9494108823B9F42097E1F080E090E039
:1021B000A0E0B0E00BC00196A11DB11D81342BE45D
:1021C00092072CE4A20720E0B20741F03699F3CF42
:1021D000CE010E94B110DF91CF91089583E0DF918D
:1021E000CF91089582E0F7CF9093DA028093D902DD
:1021F00080E0089580E487B987E886B981E390E0BC
:10220000EFECF7E03197F1F700C000000197FFEF26
:102210008F3F9F07A9F7369A80E090E0A0E0B0E0FA
:102220000BC00196A11DB11D81342BE492072CE453
:10223000A20720E0B20711F03699F3CF089583E0AA
:1022400060E041E00E945A0F089583E060E040E0C2
:102250000E945A0F08958A3008F00895E82FF0E0A0
:10226000E75FFD4F82E060810E942010089582E0C8
:102270006FEF0E940A1083E060E041E00E94D80EF8
:102280000895853B08F084EB682F70E080E090E0D3
:1022900028EE33E040E050E00E94101D24EB30E0D7
:1022A00040E050E00E942F1D28513C4F3093D30155
:1022B0002093D201089583E065E041E00E94D80EAA
:1022C0000895FC01DB01009739F06115710521F0DB
:1022D00083818C9380E0089584E00895FC01DB0104
:1022E000009781F06115710569F01C9293818481DA
:1022F000981731F0913041F082E08C938381848390
:1023000080E0089584E008959C93F8CFFF920F93A6
:102310001F93DF93CF930F92CDB7DEB7F42E8901D1
:102320002115310579F01982AE014F5F5F4F0E9490
:10233000DC0F81E0F81669F090E08981813069F066
:10234000F80190830F90CF91DF911F910F91FF9033
:10235000089590E08981882399F791E0F1CFEF9279
:10236000FF921F93DF93CF930F92CDB7DEB77C011F
:102370000097C1F0FC018081618112811982AE0158
:102380004F5F5F4F0E94DC0F113099F090E0898120
:10239000813099F0F70125812917A1F0F701958384
:1023A00081E086830F90CF91DF911F91FF90EF9096
:1023B000089590E08981882369F791E0F7012581EC
:1023C000291761F78681833020F48F5F86838330FD
:1023D00049F7F70123830F90CF91DF911F91FF9071
:1023E000EF900895FF920F931F93082FF62E142F4E
:1023F00040E00E94D80E113021F01F910F91FF9004
:102400000895802F6F2D41E00E945A0F1F910F9168
:10241000FF900895FF920F931F93FC01162F042F36
:10242000F22E0097A1F060834183228316821582E9
:1024300013821482862F642F40E00E94D80E81E020
:10244000F81651F080E01F910F91FF90089584E0FD
:102450001F910F91FF900895812F602F41E00E94FE
:102460005A0FF0CF0F931F93DF93CF9300D0CDB7C8
:10247000DEB78C01009761F11A82198280E0BE01FB
:102480006F5F7F4F0E94CD108823D1F469817A81DC
:1024900080E090E028E833E140E050E00E94101D29
:1024A00020E038E240E050E00E942F1DF801208338
:1024B00080E00F900F90CF91DF911F910F910895C1
:1024C00082E00F900F90CF91DF911F910F910895AF
:1024D00081E00F900F90CF91DF911F910F910895A0
:1024E0001F93DF93CF930F92CDB7DEB7182F8830AD
:1024F00028F00F90CF91DF911F91089580E0612F18
:10250000AE014F5F5F4F0E94DC0F40E08981813058
:1025100009F041E080E0612F0E945A0F0F90CF91A7
:10252000DF911F910895982F462F883008F0089565
:1025300080E0692F0E945A0F08951F9310E080E0F9
:10254000612F40E00E945A0F1F5F1830C1F71F91A2
:1025500008950F931F93CF93DF93082F10E0C0E0EF
:10256000D0E0A8010C2E02C0569547950A94E2F7D8
:10257000417080E06C2F0E945A0F2196C830D1051F
:1025800081F7DF91CF911F910F910895873078F4F3
:10259000282F30E02F5F3F4F81E090E002C0880F8E
:1025A000991F2A95E2F781500E94A91208958FEF92
:1025B0000E94A91208951F9310E080E0612F41E06E
:1025C0000E94D80E1F5F1830C1F70E949D121F9104
:1025D00008951F93182F0E94FD0C8EE40E940E0D8B
:1025E000812F0E94200D0E94560D1F9108951F9368
:1025F0006130D1F098E0182F1295107F192B812FA0
:1026000084600E94E9128FEC97E00197F1F700C017
:102610000000812F0E94E9128FEC97E00197F1F7FB
:1026200000C000001F91089599E0E5CF1F93182F77
:1026300082958F7061E00E94F712812F8F7061E0A8
:102640000E94F7121F910895AF92BF92CF92DF922E
:10265000EF92FF920F93DF93CF93CDB7DEB72C9716
:102660000FB6F894DEBF0FBECDBF6B017C016115C4
:1026700071058105910509F443C000E05E010894ED
:10268000A11CB11CC501800F911D9C878B87C701C0
:10269000B6012AE030E040E050E00E942F1DEB85BB
:1026A000FC856083C701B6012AE030E040E050E0DD
:1026B0000E942F1DC901DA016C017D010F5FC11459
:1026C000D104E104F104F1F6002351F00150F501C9
:1026D000E00FF11D8081805D0E9416130023B1F789
:1026E0002C960FB6F894DEBF0FBECDBFCF91DF9111
:1026F0000F91FF90EF90DF90CF90BF90AF90089533
:1027000080E30E941613ECCF1F93CF93DF93EC016D
:102710008881882351F010E00E9416131F5FFE018C
:10272000E10FF11D80818823B9F7DF91CF911F91CF
:102730000895AF92BF92CF92DF92EF92FF920F93E4
:102740001F935B016C0188EEA81683E0B80680E059
:10275000C80680E0D806B0F1C601B50128EE33E026
:1027600040E050E00E942F1D2AE030E040E050E0C1
:102770000E942F1D79018A01C601B50128EE33E0C0
:1027800040E050E00E942F1DCA01B9010E942413AD
:102790008EE20E9416138AE0E816F1040105110585
:1027A000D0F0C801B7010E94241380E690E00E9497
:1027B00084131F910F91FF90EF90DF90CF90BF9007
:1027C000AF900895C601B5010E94241385E690E0FC
:1027D0000E948413EECF80E30E941613E2CF1F9372
:1027E000182F82958F7060E00E94F712812F8F70F2
:1027F00060E00E94F7121F9108950F931F93CF93EB
:10280000DF938C01683028F0DF91CF911F910F91F9
:102810000895660F660F660F862F805C0E94EF1387
:10282000C0E0D0E0F801EC0FFD1F80810E9416137C
:102830002196C830D105B1F782E00E94EF13DF91F5
:10284000CF911F910F910895DF92EF92FF920F9316
:102850001F93CF93DF93EC017A018B018FE00E94ED
:10286000EF138881882309F1DD240E941613E114F7
:10287000F1040105110591F080E090E0A0E0B0E0E6
:10288000EFECF7E03197F1F700C000000196A11DD1
:10289000B11D8E159F05A007B10790F3D394FE01DB
:1028A000ED0DF11D8081882301F78CE00E94EF136C
:1028B000DF91CF911F910F91FF90EF90DF900895DE
:1028C00081E00E94EF130895882331F0813049F0B0
:1028D00080E80E94EF130895862F80680E94EF130E
:1028E0000895862F805C80680E94EF13089581E32D
:1028F00090E0EFECF7E03197F1F700C000000197AE
:10290000FFEF8F3F9F07A9F783E060E00E94F71277
:102910008FEC97E00197F1F700C00000EFECF7E0D3
:102920003197F1F700C000008FEC97E00197F1F7C5
:1029300000C00000EFECF7E03197F1F700C00000B5
:102940008FEC97E00197F1F700C0000083E060E0B2
:102950000E94F712EFECF7E03197F1F700C00000AA
:1029600083E060E00E94F7128FEC97E00197F1F7A7
:1029700000C0000082E060E00E94F712EFECF7E098
:102980003197F1F700C0000088E20E94EF138FEC4E
:1029900097E00197F1F700C000008CE00E94EF1370
:1029A000EFECF7E03197F1F700C0000081E00E9402
:1029B000EF138FEC97E00197F1F700C00000EFEC08
:1029C000F7E03197F1F700C0000086E00E94EF13B6
:1029D00008951F93182F482F417082E064E00E94F1
:1029E0005A0F412F4695417082E065E00E945A0FD0
:1029F00016951695412F417082E066E00E945A0FAD
:102A00001695117082E067E0412F0E945A0F1F91C6
:102A1000089582E062E041E00E945A0F8FEC97E057
:102A20000197F1F700C0000082E062E040E00E9400
:102A30005A0F8FEC97E00197F1F700C0000008955E
:102A40001F93182F82E060E041E00E945A0F82E05D
:102A500061E040E00E945A0F812F82958F700E94A2
:102A6000E9140E940915812F8F700E94E9140E94B9
:102A700009151F910895AF92BF92CF92DF92EF9206
:102A8000FF920F93DF93CF93CDB7DEB72C970FB69E
:102A9000F894DEBF0FBECDBF6B017C0161157105DF
:102AA0008105910509F443C000E05E010894A11C72
:102AB000B11CC501800F911D9C878B87C701B60192
:102AC0002AE030E040E050E00E942F1DEB85FC85BD
:102AD0006083C701B6012AE030E040E050E00E9488
:102AE0002F1DC901DA016C017D010F5FC114D104F2
:102AF000E104F104F1F6002351F00150F501E00F7B
:102B0000F11D8081805D0E9420150023B1F72C9675
:102B10000FB6F894DEBF0FBECDBFCF91DF910F91FE
:102B2000FF90EF90DF90CF90BF90AF90089580E33B
:102B30000E942015ECCF1F93CF93DF93EC01888187
:102B4000882351F010E00E9420151F5FFE01E10F65
:102B5000F11D80818823B9F7DF91CF911F910895EE
:102B6000AF92BF92CF92DF92EF92FF920F931F939B
:102B70005B016C0188EEA81683E0B80680E0C80609
:102B800080E0D806B0F1C601B50128EE33E040E0A0
:102B900050E00E942F1D2AE030E040E050E00E940B
:102BA0002F1D79018A01C601B50128EE33E040E00E
:102BB00050E00E942F1DCA01B9010E943B158EE210
:102BC0000E9420158AE0E816F10401051105D0F0F5
:102BD000C801B7010E943B158BE690E00E949B154F
:102BE0001F910F91FF90EF90DF90CF90BF90AF902B
:102BF0000895C601B5010E943B1580E790E00E9450
:102C00009B15EECF80E30E942015E2CF1F93182F73
:102C100082E060E040E00E945A0F82E061E040E024
:102C20000E945A0F812F82958F700E94E9140E9492
:102C30000915812F8F700E94E9140E9409151F91B8
:102C400008950F931F93CF93DF938C01683028F082
:102C5000DF91CF911F910F910895660F660F660F58
:102C6000862F805C0E940616C0E0D0E0F801EC0FD1
:102C7000FD1F80810E9420152196C830D105B1F733
:102C800082E00E940616DF91CF911F910F91089567
:102C9000DF92EF92FF920F931F93CF93DF93EC019C
:102CA0007A018B018FE00E9406168881882309F142
:102CB000DD240E942015E114F1040105110591F0B5
:102CC00080E090E0A0E0B0E0EFECF7E03197F1F7C2
:102CD00000C000000196A11DB11D8E159F05A00723
:102CE000B10790F3D394FE01ED0DF11D808188238F
:102CF00001F78CE00E940616DF91CF911F910F9192
:102D0000FF90EF90DF90089581E00E9406160895ED
:102D1000882331F0813049F080E80E94061608953A
:102D2000862F80680E9406160895862F805C806832
:102D30000E940616089582E060E041E00E94D80EED
:102D400082E061E041E00E94D80E82E062E041E072
:102D50000E94D80E82E064E041E00E94D80E82E03A
:102D600065E041E00E94D80E82E066E041E00E940A
:102D7000D80E82E067E041E00E94D80E81E390E047
:102D8000EFECF7E03197F1F700C000000197FFEF9B
:102D90008F3F9F07A9F783E00E94E9140E9409155D
:102DA0008FEC97E00197F1F700C00000EFECF7E03F
:102DB0003197F1F700C000008FEC97E00197F1F731
:102DC00000C00000EFECF7E03197F1F700C0000021
:102DD0008FEC97E00197F1F700C0000083E00E94BC
:102DE000E9140E940915EFECF7E03197F1F700C004
:102DF000000083E00E94E9140E9409158FEC97E01F
:102E00000197F1F700C0000082E00E94E9140E94DF
:102E10000915EFECF7E03197F1F700C0000088E208
:102E20000E9406168FEC97E00197F1F700C00000B2
:102E30008CE00E940616EFECF7E03197F1F700C046
:102E4000000081E00E9406168FEC97E00197F1F7F1
:102E500000C00000EFECF7E03197F1F700C0000090
:102E600086E00E94061608951F93DF93CF930F927A
:102E7000CDB7DEB7182F8FEF89830E94FD0C110F9D
:102E8000812F81600E940E0DCE0101960E94420D9D
:102E90000E94560D89810F90CF91DF911F91089567
:102EA0000F931F93182F062F0E94FD0C812F880F60
:102EB0000E940E0D802F0E94200D0E94560D1F9122
:102EC0000F91089581E26FEF0E94501782E26FEF39
:102ED0000E9450170895EF92FF920F931F93CF9384
:102EE000DF9300E010E091E0E92EF12CB701002E15
:102EF00002C0660F771F0A94E2F7609581E20E9494
:102F000050178FEC97E00197F1F700C0000082E2C4
:102F10000E9434178F3F89F0282F30E0C0E0D0E0C6
:102F2000C9010C2E02C0959587950A94E2F780FF9F
:102F300015C02196C830D10599F70F5F1F4F083093
:102F40001105A1F681E26FEF0E9450178FEFDF911C
:102F5000CF911F910F91FF90EF90089581E26FEF55
:102F60000E945017000F111F000F111F000F111F9B
:102F70000C0F1D1F0D5E1D4FF8018081DF91CF9159
:102F80001F910F91FF90EF9008951F930E946B1770
:102F9000182F8F3F41F181E260E00E94501782E2DA
:102FA0000E9434178F3F71F089E090E0EFECF7E07A
:102FB0003197F1F700C000000197FFEF8F3F9F07A7
:102FC000A9F7E9CF81E26FEF0E94501783E190E00B
:102FD000EFECF7E03197F1F700C000000197FFEF49
:102FE0008F3F9F07A9F7812F1F910895DF92EF92DE
:102FF000FF920F931F93DF93CF930F92CDB7DEB75E
:1030000000E010E07E010894E11CF11CF801ED5A8B
:10301000FD4FD08081E06D2D40E00E945A0F82E08C
:103020008A95F1F700C0E2E0EA95F1F700C0F2E01E
:10303000FA95F1F700C082E08A95F1F700C081E0CF
:1030400064E0A7010E94DC0F8981882369F181E097
:1030500065E0A7010E94DC0F89818823B9F181E036
:1030600066E0A7010E94DC0F8981882399F181E045
:1030700067E0A7010E94DC0F8981882379F181E054
:103080006D2D41E00E945A0F0F5F1F4F0430110554
:1030900009F0BCCF8FEF0F90CF91DF911F910F916F
:1030A000FF90EF90DF900895EE24FF2481E06D2DD6
:1030B00041E00E945A0F000F111F000F111F0E0D4B
:1030C0001F1D055A1D4FF8018081E5CF31E0E32E29
:1030D000F12CECCF22E0E22EF12CE8CF93E0E92EA8
:1030E000F12CE4CF0E94F617982F8091D401981705
:1030F00021F09093D401892F08958FEF08951F93A5
:10310000CF93DF93C3E5D2E0199181E0612F41E0D5
:103110000E94D80E81E0612F41E00E945A0F82E0A8
:10312000C735D80789F7C7E5D2E0199181E0612F4B
:1031300040E00E94D80E81E0612F41E00E945A0FCA
:1031400082E0CB35D80789F7DF91CF911F910895A1
:103150000F931F93CF93DF938C01EB0161157105E2
:1031600021F00E94FD0C882339F011E0812FDF91BE
:10317000CF911F910F91089580EA0E940E0D882330
:10318000E1F4812F0E94200D8823B9F4802F0E9442
:10319000200D882391F40E94FD0C882371F481EAAC
:1031A0000E940E0D882349F4CE010E94420D182F73
:1031B0000E94560D1123D1F2D8CF0E94560D11E076
:1031C000812FDF91CF911F910F910895FF920F935F
:1031D0001F938C01F62E0E94FD0C882329F081E0BC
:1031E0001F910F91FF90089580EA0E940E0D882391
:1031F00091F5812F0E94200D882369F5802F0E9470
:10320000200D882341F58F2D0E94200D182F0E943C
:10321000560D112321F78FEC97E00197F1F700C0CD
:1032200000008FEC97E00197F1F700C000008FECF1
:1032300097E00197F1F700C000008FEC97E001974D
:10324000F1F700C000008FEC97E00197F1F700C0A4
:10325000000080E0C5CF0E94560D81E01F910F91C4
:10326000FF9008950E94F60C0895FC01DB01009781
:1032700039F06115710521F083818C9380E0089508
:1032800084E00895FC01009711F08581089580E0A5
:103290000895EF92FF920F931F93182FF62EE42EAE
:1032A0002130E1F0013069F040E00E945A0F812F97
:1032B0006E2D40E00E945A0F1F910F91FF90EF90EA
:1032C000089540E00E945A0F812F6E2D41E00E9428
:1032D0005A0F1F910F91FF90EF900895642F40E0D7
:1032E0000E945A0F812F6F2D41E00E945A0F1F91AB
:1032F0000F91FF90EF9008950F93CF93DF93EC0120
:10330000009719F08D81813021F0DF91CF910F91DD
:1033100008950E94470B2E813F8148855985621789
:1033200073078407950788F38C81813031F08230F0
:1033300069F08B8382E08D83E8CF888169814A813F
:1033400021E000E00E9449198C81F3CF88816981D6
:103350004A8120E001E00E9449198C81EACF0F9355
:10336000FC0180816181428120E000E00E944919D6
:103370000F910895CF93DF93EC01009769F00E94BD
:10338000AF191B821C821D821E821F82188619861D
:1033900080E0DF91CF91089584E0DF91CF9108958F
:1033A0000E94BA190895DF92EF92FF920F931F9334
:1033B000CF93DF93EC01D62E009721F0862F81501A
:1033C000823048F084E0DF91CF911F910F91FF9000
:1033D000EF90DF9008958D81813061F1823019F492
:1033E0008B81861789F00E94470B7B018C01DC8260
:1033F000CE010E94AF198B81882379F4EE82FF827F
:103400000887198781E08D8380E0DF91CF911F913C
:103410000F91FF90EF90DF90089582E390E0A0E09D
:10342000B0E0E80EF91E0A1F1B1FEE82FF8208871C
:103430001987E8CF83E0DF91CF911F910F91FF9023
:10344000EF90DF900895CF93DF93EC010E94D319A2
:10345000882311F4209719F4DF91CF9108958D817D
:103460008130D1F7CE010E947C198D818130D1F35A
:10347000DF91CF910895CF93DF93EC010097C1F0D6
:103480001B821C821D821E821F82188619868881DB
:10349000698141E00E94D80E88816A8141E00E94E2
:1034A000D80ECE010E94AF1980E0DF91CF91089530
:1034B00084E0DF91CF9108950E943B1A089588B36C
:1034C00092E0892788BB089581E060E00E94D20BDA
:1034D00081E061E040E00E945A0F089581E060E0E1
:1034E0000E94D20B81E061E041E00E945A0F0895F2
:1034F00081E061E041E00E94D80E81E061E040E0BF
:103500000E945A0F81E06FE57AE10E94620B0895F4
:10351000EF92FF920F931F930E94F6097B018C019B
:103520000E947709682F80E190E00E940A0E81E1F5
:1035300090E06E2D0E940A0E5527412F302F2F2D1F
:1035400082E190E0622F0E940A0E980144275527DD
:1035500083E190E0622F0E940A0EE12EFF240027F3
:10356000112784E190E06E2D0E940A0E85E190E023
:103570006091D6010E940A0E86E190E06AEA0E94FC
:103580000A0E1F910F91FF90EF90089580E060E088
:103590000E94881686E790E00E949B150E9483098E
:1035A0000E949B158091D6019091D701A091D801DE
:1035B000B091D90181309105A105B105A9F10A9712
:1035C000A105B10561F187E890E00E949B1581E0BB
:1035D00060E00E9488168091DB02882369F48FE9FD
:1035E00090E00E949B150E94F6090E94B01586EAA1
:1035F00090E00E949B1508958EE890E00E949B1534
:103600006091DC027091DD028091DE029091DF0218
:103610000E943B1584E990E00E949B15089580E884
:1036200090E00E949B15D3CF89E790E00E949B1504
:10363000CECF4F925F926F927F928F929F92AF9276
:10364000BF92CF92DF92EF92FF920F931F93DF937F
:10365000CF93CDB7DEB72C970FB6F894DEBF0FBE71
:10366000CDBF19861A861B861C860E94CC0E0E942E
:10367000370B0E949B160E947F180E94040E0E9426
:10368000FA1080E060E00E9488168CEA90E00E94C8
:103690009B1581E060E00E9488168DEB90E00E940F
:1036A0009B158BED95E0AFECB7E01197F1F700C0FB
:1036B00000000197BFEF8F3F9B07A9F70E94841678
:1036C0000E943C09198286E190E0BE016F5F7F4F46
:1036D0000E942C0E89818A3A09F42CC1A7E0CA2ED7
:1036E000D12CCC0EDD1E78940E94C61A59E0E52E2E
:1036F000F12CEC0EFD1E01E041E0842E912CA12C5A
:10370000B12C34E6432E512C612C712CC70164E19D
:1037100070E00E94700B8823C9F70E947218182F5E
:103720008F3F61F180538A3008F047C08091DB02FF
:10373000882309F09AC00093DB0220E030E040E0EB
:1037400050E0812F90E0C097AA2797FDA095BA2F4F
:10375000820F931FA41FB51F8093DC029093DD029C
:10376000A093DE02B093DF020093D5011B3201F17A
:103770001D32F1F01A32E1F01F32C1F08091DB020C
:103780008823C1F18091E0028F5F8093E002853051
:1037900008F4BCCF1092E0028091D501882309F48F
:1037A000B5CF0E94C61A1092D501B0CF0E947A09F7
:1037B0000E94881A0093D501E1CF1D3309F46FC030
:1037C000133409F484C01B3209F48EC01D3209F48D
:1037D0009AC01A3269F64092D6015092D70160928F
:1037E000D8017092D9010093D5010E94881A0093E4
:1037F000D501C4CF18861F82B6010E94CD10882340
:1038000009F66F8178858091DA019091DB01DB0107
:10381000A81BB90BCD01B7FD89C0049744F4809172
:10382000D501882309F4AECF1F3F09F4ABCF7093C5
:10383000DB016093DA0180E090E02091D6013091C5
:10384000D7014091D8015091D9010E94101D6115F6
:1038500071058105910521F461E070E080E090E060
:103860000E948D090093D5018DCF6091DC0270918B
:10387000DD028091DE029091DF026034E2E47E0797
:10388000EFE08E07E0E09E0708F06ECF2AE030E020
:1038900040E050E00E94101D9B01AC0152CF80918E
:1038A000DB02882309F46CCF6091DC027091DD02A9
:1038B0008091DE029091DF020E948D091092DB025E
:1038C0000E94881A0093D5018091DB0259CF109293
:1038D000DB021092DC021092DD021092DE021092E6
:1038E000DF020093D5014ACF8092D6019092D70192
:1038F000A092D801B092D9010093D5010E94881AF4
:103900000093D5013BCF8AE090E0A0E0B0E0809347
:10391000D6019093D701A093D801B093D901009319
:10392000D5010E94881A0093D50128CF90958195E2
:103930009F4F73CF1A821B821C821D821E8281E0E0
:103940008F8380E190E0BE016E5F7F4F0E942C0E5E
:1039500081E190E0BE016D5F7F4F0E942C0E82E1FD
:1039600090E0BE016C5F7F4F0E942C0E83E190E0DF
:10397000BE016B5F7F4F0E942C0E84E190E0BE0180
:103980006A5F7F4F0E942C0EF7E0CF2ED12CCC0E19
:10399000DD1E85E190E0B6010E942C0EEE80FF2432
:1039A00000E010E01E2D0027FF24EE248D8190E022
:1039B000A0E0B0E0DC0199278827E82AF92A0A2B41
:1039C0001B2B8B8190E0A0E0B0E0E82AF92A0A2BBB
:1039D0001B2B8C8190E0A0E0B0E0BA2FA92F982F8C
:1039E0008827E82AF92A0A2B1B2B8A810E946F0953
:1039F000C801B7010E948D098F81882369F481E095
:103A000090E0A0E0B0E08093D6019093D701A0931E
:103A1000D801B093D90167CE90E0A0E0B0E0F3CF39
:103A2000629FD001739FF001829FE00DF11D649FA2
:103A3000E00DF11D929FF00D839FF00D749FF00D2E
:103A4000659FF00D9927729FB00DE11DF91F639FCF
:103A5000B00DE11DF91FBD01CF0111240895A1E2B0
:103A60001A2EAA1BBB1BFD010DC0AA1FBB1FEE1FF8
:103A7000FF1FA217B307E407F50720F0A21BB30B43
:103A8000E40BF50B661F771F881F991F1A9469F7BF
:103A900060957095809590959B01AC01BD01CF011B
:103AA00008952F923F924F925F926F927F928F92E2
:103AB0009F92AF92BF92CF92DF92EF92FF920F93BD
:103AC0001F93CF93DF93CDB7DEB7CA1BDB0B0FB6C7
:103AD000F894DEBF0FBECDBF09942A883988488884
:103AE0005F846E847D848C849B84AA84B984C8841A
:103AF000DF80EE80FD800C811B81AA81B981CE0F11
:103B0000D11D0FB6F894DEBF0FBECDBFED010895F5
:043B1000F894FFCF57
:103B1400206B487A0020487A202000206B487A00E5
:103B240020487A202000573A0020783120202000B5
:103B34002078313020200020783130302000536547
:103B4400743A200020487A5F20202020202000465C
:103B54005245513A20002020202020002020467584
:103B64006E6374696F6E2047656E202000202041CB
:103B740044432045646974696F6E2120200000016C
:103B840002020303030304040404040404040505F7
:103B940005050505050505050505050505050606CF
:103BA40006060606060606060606060606060606B1
:103BB400060606060606060606060606060607079F
:103BC4000707070707070707070707070707070781
:103BD4000707070707070707070707070707070771
:103BE4000707070707070707070707070707070761
:103BF400070707070707070707070707070708084F
:103C04000808080808080808080808080808080830
:103C14000808080808080808080808080808080820
:103C24000808080808080808080808080808080810
:103C34000808080808080808080808080808080800
:103C440008080808080808080808080808080808F0
:103C540008080808080808080808080808080808E0
:103C640008080808080808080808080808080808D0
:103C74000808080808080808080808080808E803E5
:103C84000000E803FF0101000000FFFF53494E4517
:103C94002020202000545249414E474C45005351A6
:103CA40055415245202000534157544F4F5448002A
:103CB400534144444C452020003F065B4F666D7DD4
:103CC400077F6F31323334353637383930575345FF
:103CD4004355446162636465666768696A6B6C6DC9
:103CE4006E6F707172737475767778797A41424326
:103CF4004445464748494A4B4C4D4E4F5051525308
:103D040054555600010203040506073738392F3489
:0C3D140035362A3132332D43303D2B0070
:00000001FF
